:03000000020026D5
:0C002600787FE4F6D8FD75817002006D53
:10022B00D5E2CAC7B7A2CBCDB5C4D7D6B7FBB4AE50
:05023B000D0A0000099E
:03001C00016D0073
:10000600EF1FAA0670011E4A600BE4FDEDC394784B
:0500160050EE0D80F723
:01001B0022C2
:1001E300E4F580750801759850758920758DFD7546
:1001F3008BFDF587C2AFD2A8D288D2AC75B801D235
:100203008EE4FC74082CF8E6FF64016012EF9002A0
:100213003E93F5907FC87E001200060CBC64E47F19
:08022300C87E0012000680D91C
:03002300020134A3
:10013400C0E0C0F0C0D075D000C000C004C005C08D
:0301440006C007EB
:10014700309837C2ACC298AF99EFC394304029EFCB
:10015700D394395023EF24D0FF7408256DF8A607F0
:100167007409256DF876FFE56D2401FFE433FE7C05
:0A017700007D641200DF8D6DD2AC34
:10018100D007D006D005D004D000D0D0D0F0D0E038
:01019100323B
:0300030002019265
:10019200C0E0C083C082C0D075D000C000C001C022
:0701A20002C003C006C00704
:1001A900756EFF756F0275702BE4FFAB6EAA6FA9B0
:1001B900708F827583001200B2600AF5993099FD3B
:0501C900C2990F80E661
:1001CE00D007D006D003D002D001D000D0D0D0823C
:0501DE00D083D0E032E7
:100032000201E3E493A3F8E493A34003F68001F200
:1000420008DFF48029E493A3F85407240CC8C333CF
:10005200C4540F4420C8834004F456800146F6DF9E
:10006200E4800B010204081020408090001CE47E12
:10007200019360BCA3FF543F30E509541FFEE49393
:10008200A360010ECF54C025E060A840B8E493A35A
:10009200FAE493A3F8E493A3C8C582C8CAC583CA85
:1000A200F0A3C8C582C8CAC583CADFE9DEE780BE3D
:01001F0000E0
:1000B200BB010CE58229F582E5833AF583E0225003
:1000C20006E92582F8E622BBFE06E92582F8E2224D
:0D00D200E58229F582E5833AF583E4932267
:1000DF00BC000BBE0029EF8DF084FFADF022E4CC05
:1000EF00F875F008EF2FFFEE33FEEC33FCEE9DECCE
:1000FF00984005FCEE9DFE0FD5F0E9E4CEFD22ED14
:10010F00F8F5F0EE8420D21CFEADF075F008EF2F5D
:10011F00FFED33FD4007985006D5F0F222C398FD4E
:05012F000FD5F0EA22EB
:00000001FF
