:0300000002016B8F
:0C016B00787FE4F6D8FD75810A020003DD
:1000E600726563656976696E6720666F726D203822
:1000F600306335312E2E0D0A002D2D2D2D2D2D2D53
:100106002D2D2D2D2D2D2D2D0D0A000D0A2D2D2DCC
:0E0116002D2D2D2D2D2D2D2D0D0A000D0A0045
:07014E001201777F647E00BF
:10015500EF1FAA0670011E4A600BE4FDEDC39478FB
:0501650050EE0D80F7D3
:01016A002272
:080177008F993099FDC2992215
:100124008B088A09890AAB08AA09A90A120078FF70
:1001340060171201777401250AF50AE43509F509F7
:0A0144007F057E0012015580DD22C8
:10000300E4FC759840758920758DFD758BFDF5872A
:10001300C299D28E7FC8FE1201557BFF7A0079E622
:100023001201247BFF7A0079FF1201247F327E00C4
:10003300120155EC2441FF12014E7F2012014EBCE8
:10004300190C7BFF7A017911120124120151EC245E
:1000530001FFE433FE7C007D1A120091AC05EC75C0
:10006300F00A84E5F070CC7BFF7A01792112012438
:0500730012015180BEE6
:10007800BB010689828A83E0225002E722BBFE0286
:09008800E32289828A83E49322B9
:10009100BC000BBE0029EF8DF084FFADF022E4CC53
:1000A100F875F008EF2FFFEE33FEEC33FCEE9DEC1C
:1000B100984005FCEE9DFE0FD5F0E9E4CEFD22ED62
:1000C100F8F5F0EE8420D21CFEADF075F008EF2FAC
:1000D100FFED33FD4007985006D5F0F222C398FD9D
:0500E1000FD5F0EA223A
:00000001FF
