:0300000002017F7B
:0C017F00787FE4F6D8FD7581200200EBCB
:07019F0063686173747200D4
:09018B00EFD3940040031F80F73C
:010194002248
:1000EB006390107F3212018B7BFF7A01799F7D0128
:0700FB00E4FF12000380E99D
:10010200A20092A3C2A4C2A5D2A6C2A78F80D2A5E2
:05011200D2A6D2A722D5
:1000C100A20092A3D2A47580FFC2A5D2A6C2A7C2E4
:1000D100A5D2A6C2A7C2A5D2A6C2A7C2A5D2A6C2B0
:0900E100A7AF80D2A5D2A6D2A7D8
:0100EA0022F3
:10011700AE07ED6009C2001200C1EF20E7F7AF0696
:05012700C2000201020C
:10014100AE07C2001200C1EF20E7F7AF06D20002EE
:020151000102A9
:0F015300C2001200C1EF20E7F7D2001200C12254
:0E0162007FB07E15EF1FAC0670011E4C70F6CC
:01017000226C
:0D0171007D50AF051DEF600512016280F5A5
:01017E00225E
:10005D00120171E4FD7F381201171201627F38120F
:10006D0001171201627F381201171201620D7F38DC
:10007D001201177F081201177F011201177F061257
:07008D0001177F0C020117AF
:10012C00EF540FFF530501ED600343074043078075
:05013C007D0102011726
:0A019500AC0312012CAF040201417B
:0A0003008F088D098B0A8A0B890C07
:10000D00E4F50EAB0AAA0BA90C850E8275830012BE
:10001D000094D36480949F4004050E80E6E4F50DB2
:10002D00E50DC3950E5028AF080508AB0AAA0BA91C
:10003D000C850D82758300120094FBAD091201959C
:0F004D00E508B41006E4F508630901050D80D13C
:01005C002281
:10009400BB010CE58229F582E5833AF583E0225021
:1000A40006E92582F8E622BBFE06E92582F8E2226B
:0D00B400E58229F582E5833AF583E4932285
:00000001FF
