:03000000020003F8
:0C000300787FE4F6D8FD75811202004AF7
:03023200010E00BA
:10008F00E4F508F509F50AF50BF50CF50DF50FF587
:10009F001031A530970280FB7FB4510D0509E5099A
:1000AF0070020508AE08FF7C007DC8311A8E0C8FD8
:1000BF000D7C007D0A311A8E0A8F0BE50B64024509
:1000CF000A7017AE0CAF0DFC7D0A311AED64044CAB
:1000DF0070085128750F04751002AE0CAF0D7C001F
:1000EF007D0A311A8D0FAE0AAF0B7C007D0A311AD3
:1000FF008D10E4F511F51231A52097A07F96510DC3
:0B010F0031A52097FB7F96510D8091D9
:0F020D007E64AD07EDD3940040031D80F7DEF350
:01021C0022BF
:0A022800D294B2947F01510D80F8CA
:1001A500E50EC394034005E4F50E8002050E740FB9
:1001B500250EF8E6FF31D0AF0E7401A807088002BE
:0B01C500C333D8FCFF31EA7F05410D79
:0B021D003097077F05510D3097FD2240
:1001FC003F065B4F666D7D077F6F777C395E79714B
:01020C0000F1
:1001D000EFD3941040027F10EF9001FC93F5800064
:0A01E0000053A01F000043A0E0221E
:1001EA0053070FEFF4F580000053A03F000043A02F
:0201FA00E02201
:10000F0002008FE493A3F8E493A34003F68001F278
:10001F0008DFF48029E493A3F85407240CC8C333F2
:10002F00C4540F4420C8834004F456800146F6DFC1
:10003F00E4800B0102040810204080900232E47E1D
:10004F00019360BCA3FF543F30E509541FFEE493B6
:10005F00A360010ECF54C025E060A840B8E493A37D
:10006F00FAE493A3F8E493A3C8C582C8CAC583CAA8
:10007F00F0A3C8C582C8CAC583CADFE9DEE780BE60
:0102350000C8
:10011A00C2D5EC30E709B2D5E4C39DFDE49CFCEE00
:10012A0030E715B2D5E4C39FFFE49EFE120150C327
:10013A00E49DFDE49CFC800312015030D507C3E422
:06014A009FFFE49EFE226F
:10015000BC000BBE0029EF8DF084FFADF022E4CC93
:10016000F875F008EF2FFFEE33FEEC33FCEE9DEC5C
:10017000984005FCEE9DFE0FD5F0E9E4CEFD22EDA2
:10018000F8F5F0EE8420D21CFEADF075F008EF2FEC
:10019000FFED33FD4007985006D5F0F222C398FDDD
:0501A0000FD5F0EA227A
:00000001FF
