:03000000020800F3
:0C080000787FE4F6D8FD758110020847EF
:03093C00010800AF
:10088C00E508C394034005E4F508800205087409E3
:10089C002508F8E6FF1208D9AF087401A8070880EC
:0E08AC0002C333D8FCFF1209097F0502092C94
:1008BA00E4F50DF50EF50FF5107580FF75A0FFF53F
:0F08CA0009750A08750B07750C0912088C80FB5D
:0F092C007E0AAD07EDD3940040031D80F7DEF384
:01093B002299
:10091B003F065B4F666D7D077F6F777C395E797124
:01092B0000CB
:1008D900EFD3941040027F10EF90091B93F580002D
:0A08E9000053A01F000043A0E0220E
:1009090053070FEFF4F580000053A03F000043A008
:02091900E022DA
:1008F300E590600E7F0A12092CE59060057E007F6B
:060903000122E4FEFF22C8
:10080C000208BAE493A3F8E493A34003F68001F240
:10081C0008DFF48029E493A3F85407240CC8C333ED
:10082C00C4540F4420C8834004F456800146F6DFBC
:10083C00E4800B010204081020408090093CE47E07
:10084C00019360BCA3FF543F30E509541FFEE493B1
:10085C00A360010ECF54C025E060A840B8E493A378
:10086C00FAE493A3F8E493A3C8C582C8CAC583CAA3
:10087C00F0A3C8C582C8CAC583CADFE9DEE780BE5B
:01093F0000B7
:00000001FF
